:020000041000EA
:1000000000B5324B212058609868022188439860DF
:10001000D860186158612E4B002199600221596106
:100020000121F02299502B49196001219960352056
:1000300000F044F80222904214D00621196600F024
:1000400034F8196E01211966002018661A6600F04E
:100050002CF8196E196E196E052000F02FF8012189
:100060000842F9D1002199601B49196000215960AB
:100070001A491B48016001219960EB211966A021F2
:10008000196600F012F800219960164914480160C1
:100090000121996001BC002800D000471248134993
:1000A000086003C880F30888084703B5996A0420EC
:1000B0000142FBD001200142F8D103BD02B5186610
:1000C0001866FFF7F2FF186E186E02BD00000240BE
:1000D000000000180000070000035F00212200005C
:1000E000F4000018222000A00001001008ED00E03C
:1000F00000000000000000000000000074B24E7A12
:1001000000200420F7010010CB010010CD010010E9
:10011000C9010010C9010010C9010010C901001077
:10012000C9010010C9010010C9010010CF01001061
:10013000C9010010C9010010D1010010D301001045
:10014000C1010010C1010010C1010010C101001067
:10015000C1010010C1010010C1010010C101001057
:10016000C1010010C1010010C1010010C101001047
:10017000C1010010C1010010C1010010C101001037
:10018000C1010010C1010010C1010010C101001027
:10019000C1010010C1010010C1010010C101001017
:1001A000C1010010C1010010C1010010C101001007
:1001B000C1010010C1010010C1010010C1010010F7
:1001C000EFF30580103800BE00BE00BE00BE00BECA
:1001D00000BE00BEF2EB88718C8B0010AC8B00105F
:1001E0003802001090A31AE71E481F49086006C88D
:1001F00081F3088810471D480068002801D019487D
:10020000F3E70DA40ECC002902D000F012F8F9E7B4
:100210001749184A002000E001C19142FCD116495B
:100220008847164988471649884700BEFDE701C937
:1002300001C29A42FBD37047AC8B0010C000002073
:1002400078100020649B00100000042000000420AF
:10025000649B001000100420001004200000000027
:10026000704700000000000008ED00E0000000D032
:1002700078100020BC210020AD520010E9110010C0
:10028000A5520010F8B5C04606480749091A8B1058
:10029000C90FC91810B5491003D0044B002B00D06A
:1002A000984710BD78100020781000200000000052
:1002B000054B10B5002B03D00449054800E000BFF2
:1002C000FFF7E2FF10BDC046000000009C1F0020A9
:1002D0006C8300101021F0B50B4A0C4C0C4FFF261C
:1002E000936919420FD193691942FCD1156823888B
:1002F0003888013333409842F2D02088054E80B2CE
:1003000035542380EBE7F0BD00400340A2210020DC
:10031000A421002070200020F0B5DE4657464E464E
:100320004546E0B57249C1B0724807F043FE01216D
:100330000600704807F022FE06210500042001F0A7
:100340002DF901232900042200936A4807F0AEFE2C
:1003500080235B022A93F31CF2011B031343664ABA
:10036000052013402B93654B2D93654B2C9302F086
:1003700035FA03F00BFB634903F0EDFAEC21890534
:1003800003F0E6FA071C03F05BFB84B20020002CAC
:100390000DD0200003F0FAFA011C381C03F0D5FA46
:1003A0008721C90503F0EBFA03F04AFBC0B224042D
:1003B000000220434F4C320029002A902AAB200033
:1003C00007F0CCFE0123AB4022684F491343236062
:1003D0004E4C200002F08EF80221002001F0DEF8E1
:1003E0000221012001F0DAF8022001F013F9D023F4
:1003F00004221B065A6214209A61454901F04CFA06
:100400000121142001F012FA5023A363626B183B00
:100410001340404A404C1360404B2893404B299373
:1004200000230B930A931C93229321933D4B1F00AF
:100430003D4B03933D4B98463D4BC24611933D4B7C
:1004400005933D4B06933D4B04933D4B07933D4B2A
:100450001E003D4B1F933D4B24933D4B20933D4B42
:100460000D933D4B1B933D4B25933D4B12933D4BC1
:1004700013933D4B14933D4B26933D4B27933D4B9C
:100480000E933D4B9B4610239C46AC446346109311
:100490002B1D0F93394B5D461A93394B0993394BFA
:1004A0001E930023239319331993013B1893013BA7
:1004B0001793013B1693013B159322883B889A4280
:1004C00000D10EE251462288039B92B2885CFF2243
:1004D00021881B7801310A4022805146FF22C0B298
:1004E000052B01D900F063FE119A9B00D3589F465B
:1004F000D486001000002050FFFFFF9F0010002056
:10050000000006700024F44A40420F0000400340FF
:10051000D502001034500340A4210020A88600100A
:100520008C860010A2210020B7210020702000201E
:1005300070830010AB210020A9210020B2210020EF
:10054000AF210020BC1F0020AC2100201C20002077
:10055000B5210020B62100208C1F00207C21002026
:10056000A00F0020980F0020841B0020AE21002047
:100570008021002078210020C8120020AD21002019
:10058000781B002088830010020060465C46944679
:10059000834201D100F09DFC0E9A13680133136071
:1005A0000023039A137023883A889A4200D198E175
:1005B000524623889BB2D05CFF232288C0B201320E
:1005C0001340238055281FD023883A889A4200D1AF
:1005D00087E1524623889BB2D15CFF2223880133F6
:1005E0001340238055290FD023883988994200D1A0
:1005F00077E1514623889BB2C85C2388C0B201339F
:100600001A4022805528DFD10123039A13702288D3
:100610003B889A4200D164E1524623889BB2D05C69
:10062000FF232288013213402380059B039A187010
:100630000223137022883B889A4200D151E152462E
:1006400023889BB2D05CFF23228801321340238091
:10065000069B039A18700323137023883A889A42E2
:1006600000D13EE1524623889BB2D05CFF23228812
:10067000C0B2013213402380049B079A18700023F4
:100680001370502800D98BE7002800D0C1E3052360
:10069000039A137023883A889A4200D121E1524686
:1006A00023889BB2D05CFF232288C0B20132134062
:1006B0002380059B1A781B7891465BB2002B00DAE9
:1006C00096E3520053B2002B00DA10E2520053B20C
:1006D000002B00DA12E2520053B2002B00DA14E2CF
:1006E000520053B2002B00DA16E2520053B2002B34
:1006F00000DA18E2520053B2002B00DA1AE252007C
:1007000053B2002B00DA1CE25300069A12785340D1
:1007100090465AB2190600D51EE25B005AB2002A72
:1007200000DA20E25B005AB2002A00DA22E25A0024
:1007300053B2002B00DA24E2520053B2002B00DA4D
:1007400026E2520053B2002B00DA28E2520053B2E4
:10075000002B00DA2AE2520053B2002B00DA2CE21E
:100760005300049A1278534094465AB2190600D5A1
:100770002EE25B005AB2002A00DA30E25B005AB285
:10078000002A00DA32E25A0053B2002B00DA34E2D7
:10079000520053B2002B00DA36E2520053B2002B63
:1007A00000DA38E2520053B2002B00DA3AE252008B
:1007B00053B2002B00DA3CE25200D3B26246002A68
:1007C00000D13EE2002293466246089284465A4691
:1007D0000721A346089821E0640063B2002B27DBC1
:1007E000640063B2002B28DB640063B2002B29DBBA
:1007F000640063B2002B2ADB640063B2002B2BDBA6
:10080000640063B2002B2CDB640063B2002B2DDB91
:100810006300DBB20132904200DCB5E6B45C5C40C0
:1008200063B2002BD8DA5B004B405BB21C1ED7DAF8
:100830005B004B405BB21C1ED6DA5B004B405BB2E8
:100840001C1ED5DA5B004B405BB21C1ED4DA5B0089
:100850004B405BB21C1ED3DA5B004B405BB21C1EEC
:10086000D2DA5B004B405BB21C1ED1DA5B004B401E
:10087000DBB2CFE707990A78531CB054049ADBB275
:1008800012780B709A4224D022883B889A4228D052
:100890005246238807989BB2D15CFF2322880132FD
:1008A000134002782380B154531C049ADBB21278AF
:1008B00003709A420DD022883B889A4211D052464A
:1008C00023889BB2D05CFF2322880132134023800F
:1008D000D0E70523039A137022883B889A4200D000
:1008E000DDE601F0B7FD002900D1FAE0FA2200238D
:1008F000920002F027FA83460D9B1B78002B06D04E
:100900005A461B9B1B68D31A632B00D876E25B46C2
:100910000B9A9B1A0F2B00D875E21A9B1B78002BA1
:1009200000D17FE2099B00201B78002B06D0149A8F
:10093000138898B2002B01D0108880B2099B5B7895
:10094000002B05D0149A5388834201D9508880B275
:10095000099B9B78002B05D0149A9388834201D978
:10096000908880B2099BDB78002B05D0149AD3883D
:10097000834201D9D08880B203F00EF8CD4902F04D
:10098000EAFFCD49814602F0FAFFCC4902F0E0FFD0
:10099000CB498046484602F0F2FF011CC84802F0ED
:1009A000D4FFC84902F0D7FF814603F017F80021B1
:1009B0000B90404602F0E3FF08900B9802F0ECFF2A
:1009C000011C484602F0C1FF011CFE20800502F018
:1009D000BCFF011C0C90404602F0D1FF1D908146E7
:1009E000FE200C99800502F0B0FF414602F0C7FFDF
:1009F00006210C900B9802F03FF9042900D9F7E288
:100A00001E9B89005B589F460C9BC1469846AE4989
:100A1000404602F0B4FF03F013F803069846AA49D3
:100A2000484602F0ACFF03F00BF84246C3B21B0489
:100A30001A439046A449089802F0A1FF03F000F879
:100A40004246C3B21B0213432B606B60AB60EB608A
:100A50002B616B61AB61EB612B626B62AB62EB6232
:100A60002B636B63AB63EB632B646B64AB64EB6412
:100A70002B656B65AB65EB652B660121109B280030
:100A80009940642398460F9BA8449B001D00A146F3
:100A900084468E4A046853681942FCD10430AC5035
:100AA0008045F7D13C200021654601F0CBFB0A9B35
:100AB0004C4601330A935B460B93FEE44346089A87
:100AC00008930C9B90469946A1E7089A4B4691469D
:100AD0004246984608929AE7089B99460C9B0893D1
:100AE00095E7FA21890002F0EFF8834604E7072230
:100AF0005B0053405BB21A1E00DBECE507225B0093
:100B000053405BB21A1E00DBEAE507225B0053404C
:100B10005BB21A1E00DBE8E507225B0053405BB2C4
:100B20001A1E00DBE6E507225B0053405BB21A1E8B
:100B300000DBE4E507225B0053405BB21A1E00DBDA
:100B4000E2E507225B005340069A12785340904634
:100B50005AB2190600D4E0E5072352005A4052B2B7
:100B6000131E00DBDEE5072352005A4052B2131E6B
:100B700000DBDCE55300072253405BB21A1E00DBAA
:100B8000DAE507225B0053405BB21A1E00DBD8E5B2
:100B900007225B0053405BB21A1E00DBD6E507223A
:100BA0005B0053405BB21A1E00DBD4E507225B00FA
:100BB00053405BB21A1E00DBD2E507225B005340B4
:100BC000049A1278534094465AB2190600D4D0E5DC
:100BD000072352005A4052B2131E00DBCEE5072312
:100BE00052005A4052B2131E00DBCCE507235200DC
:100BF00053405BB21A1E00DBCAE507225B0053407C
:100C00005BB21A1E00DBC8E507225B0053405BB2F3
:100C10001A1E00DBC6E507225B0053405BB21A1EBA
:100C200000DBC4E507225B0053405BB21A1E00DB09
:100C3000C2E507225B0053406246DBB2002A00D0C7
:100C4000C0E5834200D0A7E44B464C2B00D1A7E47B
:100C5000432B00D1A4E4462B00D0A1E41F9B1B78BA
:100C6000984500D09CE4149BA1461A88588899881E
:100C7000DB8894469B46269B1A78154B08921A00EF
:100C800026AB1A8242469A7409231A0026ABDA74FC
:100C900062469A825A465A83089AD88219831A77EA
:100CA000112326AA9B182AA81A0007210023804690
:100CB00042E0C04600F07F456666263F9A99193E9D
:100CC000000070430000704200007F43000020508D
:100CD0005566000063465B009C465BB2002B37DB29
:100CE00063465B009C465BB2002B37DB63465B00D0
:100CF0009C465BB2002B37DB63465B009C465BB2D5
:100D0000002B37DB63465B009C465BB2002B37DB76
:100D100063465B009C465BB2002B37DB63465B009F
:100D20009C465BB2002B37DB1D20634626AC0132AC
:100D300000195B00904237D010785840844643B287
:100D40000006C7D55B004B405BB29C46002BC7DA60
:100D50005B004B405BB29C46002BC7DA5B004B400C
:100D60005BB29C46002BC7DA5B004B405BB29C46F3
:100D7000002BC7DA5B004B405BB29C46002BC7DA06
:100D80005B004B405BB29C46002BC7DA5B004B40DC
:100D90005BB29C46002BC7DA1D2026AC5B000132FB
:100DA00000194B409042C7D16377D02304221B0621
:100DB0005A610A322AAB9B1840464C469C46202179
:100DC000AA4A93691942FCD1037801301360844523
:100DD000F7D10823A54A91690B42FCD1D023042204
:100DE0001B069A61279A136801331360FFF7D8FB3B
:100DF00007225B0053405BB21A0064E4209B1B781F
:100E0000002B00D092E06420002101F01BFAFFF7D4
:100E100054FB0423039A137023883A889A4200D023
:100E200036E55EE564220021280002F06DFE239A7B
:100E300026AB08339B5819219846199801F01CFFDE
:100E40004346F0225B5C52019B005A5119211898CD
:100E500001F012FF4346C0225B5C52019B005A51D5
:100E60001921179801F008FF434690225B5C52015C
:100E70009B005A511921169801F0FEFE4346C022EC
:100E80005B5C12019B005A511921159801F0F4FE88
:100E90004346C0225B5CD2009B005A5101230A9A50
:100EA0009846134200D0E8E522981921013001F05C
:100EB000E3FE0B1E229100D1A0E00A001932199224
:100EC000013A1892013A17921533013A1692159386
:100ED000D3E54B464C2B62D0432B01D0FFF760FB90
:100EE0001F9B1B789946984501D0FFF759FB052AAF
:100EF00001D0FFF755FBB178737809021943F378F5
:100F000030781A0033791B021343FF2800D139E1EE
:100F1000002800D192E0012800D143E1022800D04E
:100F20003DE1129A9180139A93808BE000234B212C
:100F3000209AAC461370249B1A005B18984629002F
:100F4000537810781B0600040343907803320002A4
:100F5000034308C14245F3D10121109B60469940EB
:100F6000642398460F9BA8449B009C462B00A146F7
:100F700065469C463E4A046853681942FCD10430D9
:100F8000AC504045F7D13C200021654601F05AF9AC
:100F9000642000214C4601F055F9FFF78EFA4346D4
:100FA000FF2B05D01F9B1B78434501D0FFF7F8FAB4
:100FB00063464B2B01D0FFF7F3FA4B223100249804
:100FC00002F0A8FD0123209A13700D9A137001F00E
:100FD00041FA00292DD0FA220023920001F0B2FE3E
:100FE0001B9B259A1860136801331360FFF7D8FA2A
:100FF000089BC14698461D9B089308E51C9B002B47
:1010000013D04246219B01331A40930021920022C3
:10101000239319231C921993013B1893013B1793B7
:10102000013B1693013B159327E501231C931833CD
:10103000F1E7FA21890001F047FED1E7129A118009
:10104000139A13800B4B26AA138213004A469A74F4
:10105000052326AAD37433682AA82B933379072152
:10106000137680460023020036E0C046004003406D
:10107000000020505563000063465B009C465BB255
:10108000002B35DB63465B009C465BB2002B35DBF7
:1010900063465B009C465BB2002B35DB63465B001E
:1010A0009C465BB2002B35DB63465B009C465BB223
:1010B000002B35DB63465B009C465BB2002B35DBC7
:1010C00063465B009C465BB2002B35DB6346013216
:1010D0002CA85B00904235D050785840844643B2EB
:1010E0000006C9D55B004B405BB29C46002BC9DAB9
:1010F0005B004B405BB29C46002BC9DA5B004B4067
:101100005BB29C46002BC9DA5B004B405BB29C464D
:10111000002BC9DA5B004B405BB29C46002BC9DA5E
:101120005B004B405BB29C46002BC9DA5B004B4036
:101130005BB29C46002BC9DA5B0001322CA84B4005
:101140009042C9D126AA5376D02304221B065A61A5
:1011500006322AAB9B1840469C462021214A9369BF
:101160001942FCD10378013013608445F7D108237C
:101170001C4A91690B42FCD1D02304221B069A61C0
:10118000FFF70EFA1298139A018013804180538062
:1011900081809380129AD180139AD38052E70328DA
:1011A000F8D04FE7129A5180139A53804AE720886B
:1011B0003B88984212D023889BB2CB5C23880133B2
:1011C0001340238023883888984207D023889BB215
:1011D000CB5C2388013313402380E8E78A46FFF77E
:1011E00080FBC04600400340F0B5DE46574645460A
:1011F0004E46E0B59BB004F083F9D024032000F004
:1012000009FA0823240663620520A36100F002FAAC
:1012100000220021052000F0D9F920230620A36137
:10122000A36200F0F7F940230122A3620021062007
:1012300000F0CCF90A20002101F004F86368B64DF3
:101240005B06DB0F2B7006F07DFEB44B1F009A4649
:101250001C00103740CC1F21300000F09FF9002106
:101260003000002200F0B2F90021300000F0C0F997
:10127000BC42EFD1AA4CAB4EA76A03E0A36ADB1BCA
:10128000B34203D804F09CFC0028F7D0A64804F031
:1012900085F92978A54B002900D0A54B0622A54841
:1012A00004F0FEF9C822FA2152004900A24804F0D5
:1012B000F7F9A24804F072F9002304279846A04BDE
:1012C000A04C9946A04B9B46A04B0693A04B09937C
:1012D000434622681B035340E022D20113409D4A3B
:1012E00032251360802200269B4952000F6023683C
:1012F0001342FCD06368013D1B041B0CF618002D43
:10130000F4D13221300001F0DFFC944A4146B24270
:101310006D414A4603005554404649465246085CD2
:1013200012680699002800D0594600910998414654
:1013300004F0B6F90123984403339A444346042B3E
:10134000C6D1874806F0D0FD002401F083F8854B14
:101350001B184C410C930D94834B1093834B1193AA
:10136000834B0E93834B1393834B1493834B984679
:10137000834B1293834B1993834B1593834B169393
:10138000834B9A46834B9B46834B179343460F935D
:10139000534618935B46CB4699460026B0465E46B8
:1013A000684F002209920A926A4A002393468022DB
:1013B000B24611981099520006905446E45C002CF5
:1013C00051D106980133013001310690042BF4D13C
:1013D0000F9A0A9B09991370129A56461170002BA6
:1013E00074D0D02308221B065A6118325A62012396
:1013F000984401F02FF80D9B04000D008B42D0D8CB
:101400000C9A0D9B8B4201D18242CAD80694079553
:101410000E980F9F028843888188C0883F78B34622
:101420003C004646159F92B29BB289B280B2002C16
:1014300000D0199F189C246805944C462468049495
:10144000179C24680190009116983100039402972C
:1014500004F026F9069807990023424A12184B41D6
:101460000C920D9399E73D681E036E40E025ED0157
:101470002E405D462E6004253748056006983E687C
:101480001642FCD05D00AC46069060467E680E9D1C
:10149000B6B22E52069805780B95002D0ED06546F3
:1014A0001398405BB04218D800260E7001269E406B
:1014B000099830430990E0B20A9082E76546149893
:1014C000405B864214D80B9808707AE7D023082234
:1014D0001B069A6118329A6289E70E780136F6B2D5
:1014E0000E70092EE2D90020069D2870087068E76A
:1014F0000E780136F6B20E70092E00D861E701268B
:101500000698067001269E400B9808700998304393
:101510000990E0B20A9054E7AC210020C486001084
:1015200000400540BFC62D00E4830010A8830010D2
:101530009C83001004840010208400105884001044
:10154000781B002000C00440BC830010C48300103E
:101550007C84001000D0044000E00440852400009A
:101560001903001040420F00801B00207C1B00204C
:10157000841B0020980F0020A00F0020AD21002028
:10158000AE210020D4830010DC830010AC84001056
:1015900078210020802100207C21002010B54024EB
:1015A000074A83009A181268C0005440C0222240A3
:1015B000044C1B191A60044BC018416010BDC04692
:1015C00004C0014004D0014000400140064B8000AF
:1015D000C3181B68C90092000A435A400C231340E9
:1015E000024A80180360704704C0014004D00140E3
:1015F0008000002904D0054BC018402303607047C9
:10160000034BC01840230360F9E7C04604E00140E3
:1016100004F001400123D0228340120693629361BB
:10162000084A83009A1811684022514080320A40CB
:101630000549C0005B181A60044BC01805234360BD
:101640007047C04604C0014004D001400040014042
:101650008023DB051868000F7047C0460FB400B543
:10166000084883B003F09AFF049B002B07D005A91C
:101670001800019103F0FCFD034803F08FFF0120E7
:1016800003F00EFEF88400101C840010EFF31080AD
:1016900072B6034A1368002BFCD0BFF35F8F70470C
:1016A0002C0100D0BFF35F8F0022024B1A6080F341
:1016B000108870472C0100D070B58C461600EFF3EF
:1016C000108472B60F490B68002BFCD0BFF35F8FFC
:1016D0006346DB08C5180722C05C63461A40012335
:1016E00093401A000240034207D118432870BFF309
:1016F0005F8F0A6084F3108870BD61463000FFF789
:10170000ADFFC0462C0100D0F8B5CE4647468C460A
:1017100080B51C00EFF3108872B61C490B68002BD3
:10172000FCD0BFF35F8FA24221D80723994602E085
:101730000132944218D34946012611408E40D30805
:10174000C718C35C1E42F3D1100033433B70BFF394
:101750005F8F00220D4B1A6088F3108800280EDB83
:10176000C0BCB946B046F8BD01204042EFE7BFF328
:101770005F8F00230B6088F310880120404263468E
:10178000002BEDD00898FFF769FFC0462C0100D070
:10179000044A1078431CDBB2172B00D910231370B6
:1017A0007047C046A80F002000B5054B83B001006C
:1017B000009318221F230348FFF7A6FF03B000BDC4
:1017C00008850010101B00200021044B044ABFF3C1
:1017D0005F8F02C39342FAD17047C046000100D028
:1017E000800100D0084B094A1360094A1360094A76
:1017F0001360094A1360094A1360094A1360094AD1
:101800001360094A136070478080808000E400E024
:1018100004E400E008E400E00CE400E010E400E090
:1018200014E400E018E400E01CE400E01F2318408A
:101830001E3B8340002905D0C021044A4900535073
:1018400013607047802201498B50FAE700E100E005
:1018500001228240034B1B6813405A1E9341D8B2A9
:101860007047C04600E100E001238340014A136055
:101870007047C04600E200E0054B10309B688000D6
:10188000C358044A00209B1A2F229A4240417047B5
:1018900000ED00E0AC0F002070B50D00EFF31086F6
:1018A00072B60F4A1368002BFCD0BFF35F8F0D4B4D
:1018B00010309B6884001B590B4A934203D09D4211
:1018C00001D001F099F8074B9B681D51BFF35F8F62
:1018D000BFF35F8F0022024B1A6086F3108870BD41
:1018E000240100D000ED00E0C1010010F0B5DE469B
:1018F00057464E464546E0B5824683B08B461700B4
:10190000EFF3108872B6604A1368002BFCD0BFF367
:101910005F8F00255D4B5D579946002D00DA9AE0F8
:101920004A466B005A4C5E19B6000193A319009306
:101930009B791370574B9A68534610339B00D158CC
:1019400099460B1B2F2B32D9534B994200D098E06C
:10195000019B0236ED18514BAD006353504BA61955
:10196000043B9B1B4F4A1B055B0D651913436B80A2
:101970004D4B0121AB80FF23AB715B46AB60009BFD
:10198000EF710B4319004A46424B9B689950BFF3D5
:101990005F8FBFF35F8F00223B4B1A6088F3108884
:1019A00003B0F0BCBB46B246A946A046F0BD01203C
:1019B0000A008243D379B446BB422DD83B4BB51CB9
:1019C000190013001B1B5B415943090D8C46334B17
:1019D0006519A353324B0099043B5B1B1B05314D2A
:1019E0005B0D2B4304364B80A619131F9B1B1B0555
:1019F0005B0D1D4363468B715B468B602C4B8D806A
:101A0000CF7113600143BEE75800C0188000201852
:101A1000C679BE4225D902000623D356002BF3DA3D
:101A20009A46131D9C4623486346009E9571043ECA
:101A3000F61A36051B4B760D1E43019B96805A19EC
:101A400053469200A418A3715B46194AA0802260F5
:101A5000E771A36097E700F0CFFF00254B465D5785
:101A60005EE766469A46131D9C46908804364005FC
:101A70000015A6196044801B00050A4E400D304336
:101A8000D2E700F0B9FF63E7240100D0B0210020C5
:101A9000AC0F002000ED00E0C101001000A1FFFF2D
:101AA000DC0F002000E0FFFF01BDFFFFAAAA00003D
:101AB0000148804701BD00000123034370B59C46E7
:101AC000EFF30581EFF3108572B6214A1368002BFE
:101AD000FCD0BFF35F8F1F4B04001F4AE41A644120
:101AE0006243120D1D4C8900A66852B276586645B5
:101AF0001CD00621595691421CD0122159569142B0
:101B000022D01E215956914220D02A215956032411
:101B1000914210D0124B19781A708171BFF35F8F08
:101B200000220B4B1A6085F3108870BDA3680D4C22
:101B30005C50EFE700246100091989005B18FF2160
:101B4000997109499980E5E70124F4E70224F2E755
:101B5000240100D0AC0F0020AAAA000000ED00E094
:101B6000B0210020C101001001BDFFFF00B5074BEF
:101B700083B001000093002205230548FFF7C4FD50
:101B8000002801DB1F23181A03B000BD24850010B4
:101B9000B8210020024BC918890001607047C04677
:101BA0004000003470B5114C114DAC420FD2FF26ED
:101BB0002368002B0CD0FFF7EBFD01002000FFF79E
:101BC000E9FFA680BFF35F8F0834AC42F0D370BD4D
:101BD000FFF7DEFD01002000FFF7DCFF2671BFF3F9
:101BE0005F8F0834AC42E3D3F1E7C04668100020B1
:101BF0007810002010B50400FFF7CAFD0100200096
:101C0000FFF7C8FFFF232371BFF35F8F10BDC046EE
:101C100010B504000120FFF7C7FD034BC01880007A
:101C20002060BFF35F8F10BD40000034034BC91824
:101C300089000160BFF35F8F7047C04640000034E9
:101C40000A4B1968EFF3108072B60A68002AFCD0BC
:101C5000BFF35F8F1B68BFF35F8F00221A6080F3B2
:101C6000108840BF002000217047C046742100202A
:101C7000F0B5DE4657464E464546E0B585B0EFF333
:101C8000058303221A40B34B91005F580123934010
:101C90009B4602925A468846AF4B1A60AF4B03935D
:101CA0005B46AF4843630823FE5E002E37DABB88ED
:101CB0001BB2002B00DBA4E0BB79002B00D0E5E0D9
:101CC0000823F95E002920DB4B007A695B18DB00F2
:101CD000D3189D68DC686B1C00D104E1A0480100AA
:101CE0004144826A0B69AE1A9B1A9E4215D30123A6
:101CF000026A029883401A420FD0994800F0A2FB72
:101D00008C4202DCCCD18542CAD940BF05B0F0BCC0
:101D1000BB46B246A946A046F0BD0D61EDE77A6923
:101D2000730091469B19DB0099444B469C68DD6823
:101D300000F088FB8D42BADC00D1F6E0002D00DA1D
:101D4000DBE04A464B4652691B699246039A93422E
:101D500000D1CCE04A460821785E52880004514602
:101D600010439847009001910099019A0B0013438A
:101D700000D1C2E013000A00002B00DBD9E02000F4
:101D80002900801A99414B469860D96000229B5ED9
:101D9000002B00DA8BE75D007C69EA18D200A218FC
:101DA00000949468D268A2468A4200DD7FE702D19F
:101DB000844200D97BE70824A4463B81BC44009CB4
:101DC00000972F006546B4463E0006E05E00F2181C
:101DD000D200A2189768D268BA468A4207DC00D1BE
:101DE000B4E0F318DB00E518E35E002BEEDA66469C
:101DF0004A46009F13802E80BB881BB2002B00DA5E
:101E00005AE73A69EFF3108172B61368002BFCD0E1
:101E1000BFF35F8F0123BE885B42BB8036B23B6954
:101E2000BFF35F8F00221A6081F31088002E00DA62
:101E300042E73B0008333A0099467D6973009B19DD
:101E40000824115FDB004846EB18002913DB9C686F
:101E50000093A446DC6806E0A34240D00023F95E6C
:101E60003800002906DB4F007F18FF00EF19FB68E0
:101E7000A342F1DD009B068000201E5E1980002E2B
:101E8000DCDA1700BB79002B00D119E70023BB7106
:101E90000823F95E4B1C00D137E73D000835AC46FE
:101EA0007C6903E084464B1C00D109E74B005B18BA
:101EB000DB00E0180A00E15E43881BB2002BF1DA78
:101EC00001256D42EE178560C66008257B5F934251
:101ED000E9D0634619803B8903803A81E3E7BB6818
:101EE0006345BBD9C6E7631C00D0F7E605E7534658
:101EF00050461B699847002823D14B461B883A69F6
:101F00003B81EFF3108372B611680029FCD0BFF358
:101F10005F8F49467A880A803A697E80BFF35F8F77
:101F20000021116083F31088C1E6844200D805E7E0
:101F3000BDE60B4800F086FA009B019CC018614189
:101F400021E753460CCB009201930DE7824500D860
:101F500047E74CE70C2000203C700540711C001046
:101F60000040054070B52D4C2569002D04D00A2194
:101F70002B48FFF70FFE70BD2A4E0321294800F0C1
:101F800057FAE660FFF704FC274B0322C018D02362
:101F900022701B061B6801216370244B8000A36024
:101FA0000F2320610220638063694942A180198068
:101FB0000231198647311D83585218315A527532F1
:101FC0005C399952183201319952183201319952C3
:101FD000183201319952083518329D5202311832A7
:101FE00099521832013199521832013199521832EE
:101FF00001319952183201319952183201319952F6
:102000000B4B0C49DC6001303562FFF745FC0121C8
:102010000320FFF70BFC084B1D60A8E7F40F00201E
:10202000742100200040054040000034FFFF1000F4
:102030000C200020711C00103860054000487047DB
:10204000F40F0020F8B51F0008AB1B780400160041
:10205000002B07D100F0FEF932003B00121A8B4131
:10206000002B51DB2269EFF3108C72B61368002B42
:10207000FCD0BFF35F8F0223E15E256900293ADBC4
:102080004B0060695B18DB00C218C35A6380BFF362
:102090005F8F00232B608CF31088069B9660D760BF
:1020A0001361079B5361538801335B045B0C181C5D
:1020B000002B1ED083B25080080418432569EFF32B
:1020C000108672B62B68002BFCD0BFF35F8FA388FD
:1020D0001380A1802369BFF35F8F00221A6086F30B
:1020E0001088237801329A400849E3685B181A6027
:1020F000F8BD0120DEE7BFF35F8F00232B608CF378
:10210000108801204042F3E70020F1E73C20000066
:1021100070B582B00092019301000269EFF3108460
:1021200072B61368002BFCD0BFF35F8F0223C85E2A
:102130000D6900283FDB4A69430016001B18DB00CD
:10214000D218F35A4B80BFF35F8F00232B6084F3C8
:102150001088069B1361079B5361009B019C936051
:10216000D460538801335B045B0C1D1C002B20D012
:10217000ACB20304558023430D69EFF3108C72B6A3
:102180002C68002CFCD0BFF35F8F8C881480888073
:102190000A69BFF35F8F002010608CF310880A7803
:1021A00001309040CA68084952181060180002B007
:1021B00070BD0125DCE7BFF35F8F00232B6084F344
:1021C0001088013BF2E7C0463C20000010B543896F
:1021D0000A1493421ADD53009B184269DB00D3189E
:1021E0000469EFF3108C72B62268002AFCD0BFF3AA
:1021F0005F8F5A88090494B2090C8A4208D0036997
:10220000BFF35F8F00221A608CF31088002010BD8E
:10221000094A22435A80012302698371BFF35F8F09
:10222000002111608CF31088027804499340C26841
:10223000012052181360EAE70080FFFF3C200000F5
:1022400040787047F0B5C64600B582B004000D0076
:1022500000F000F924184D41002D02DA01242F4D21
:10226000644206267642F71736196F41AF4214D8FA
:1022700011D000F0EFF832003B00121A8B41002B16
:1022800015DC002B46D02000290000F023F902B015
:1022900080BCB846F0BDA642EBD90026002700F06E
:1022A000D9F832003B00121A8B41002BE9DD00F017
:1022B000D1F832003B00121A8B41002B0ADB0023BD
:1022C0000193174B3200009316483B00FFF720FFA5
:1022D0000130D8D000233900B0469C46124A13483A
:1022E000536A994204D8966A4645CCD29942CAD1DB
:1022F0000668EFF3108772B63368002BFCD0BFF38B
:102300005F8F0368BFF35F8F66461E6087F3108898
:1023100020BFE5E7002AB6D0C9E7C046FFFFFF7F30
:10232000411C0010F40F00200040054074210020E3
:10233000F0B5CE46474680B504000D0085B0EFF3FA
:1023400005868946002E10D0364900204B6AAB42E4
:1023500006D38A6A5B1B591E8B41A2424041184337
:1023600005B0C0BCB946B046F0BD2F4FFB683A7807
:1023700098461800039200F065F8039A131D424630
:102380009B009B5822001B1A9C462B00121A8B4163
:102390009E4210DC0DD020BF224A0020536A4B45DC
:1023A000DED3926A5B1B591E8B41A2424041184307
:1023B000D6E79445EFD900F04DF822002B00121A11
:1023C0008B41002B1BDB00230193184B2200009351
:1023D00038002B00FFF79CFE002810DD114B5A6AD5
:1023E0004A451CD39B6AA34217D301003800FFF76C
:1023F000EDFE0C4A0020536A4B45B1D3D1E7094AA0
:102400000020536A4B45ABD30020926A5B1BA2426B
:1024100040415A1E93411843A2E74A45E5D120BFE7
:10242000E3E7C04600400540F40F0020411C0010C7
:1024300010B5024A0248FFF73FF910BD4085001071
:10244000141B00200300416A0A00986A596A8A42F4
:10245000FAD17047034B596A0A00986A596A914247
:10246000FAD170470040054070B505000E00184ACB
:10247000536A1900946A536A8B42FAD120001900FA
:102480002C00350024184D41AB4216D813D0104B08
:102490002A005B6A9D4203D90D494B6A9342FCD3E3
:1024A000934207D10A4A02E0516A994202D1916AE5
:1024B000A142F9D370BDA042E9D9054B5B6A1C006B
:1024C0005A1CEFD0012201246442E5175242E3E78F
:1024D00000400540064A536A9942FCD807D1044B94
:1024E00002E05A6A914202D19A6A9042F9D8704742
:1024F00000400540F8B5040006200D0000F06EF91C
:10250000002843D0364B3749E3185A1E93418022A6
:102510005B429B0D12049B059B18334A1360334AA0
:10252000136018000A689043FBD12D4B304AE31822
:1025300059424B4180215B0049000620995200F02E
:102540004DF92900C00000F0BFFB0130C3091ED1C6
:10255000402701226262A362266BF30722D4E36A5A
:10256000244B0620E51800232B60266300F036F983
:102570003900800000F0A8FB7023E26A5A400E3355
:1025800013402B601C4B23630323A364F8BD1B4A39
:1025900093421DD900231A4A1A4F6262A362266B26
:1025A000F307DCD5184B144AE3181A60656AA36A6E
:1025B0000620AD01ED1800F011F9144900F084FB7C
:1025C0000100A80200F080FB0021FFF74DFFC6E7E5
:1025D00040069A01800E17181A000300BAE7C04699
:1025E0000080FCBF08C0004000E0004000F0004058
:1025F0008C2100202C10000001030000FEFF0000D1
:10260000FFFF0000C0FF3F00303000004E0E000012
:10261000F8B5DE464E4645465746E0B505008B46C2
:1026200018000A99914600F04FFB0A9B6C001E02AD
:102630006419304BA400E418636880469E4200D9B8
:1026400066602F1FFBB29A46012B2FD9C023802230
:10265000294FAD009B0179591201E3181A60002936
:102660001BD14B4622685B015340E022134080227D
:102670005201A21813605346012B2FD980238022C8
:102680009B01E31812011A60434666607B51F0BC5F
:10269000BB46B246A946A046F8BD786900F014FBD7
:1026A000013043001B18033BFDD2DAE75B46012BE8
:1026B000CCD1C02303229B01E3181A60023AA3681D
:1026C0001A42FCD04A46236852015A40E023134084
:1026D00080225201A218084F1360AD005846032310
:1026E000216841400B40136001228240A3681A42D6
:1026F000FCD0C3E7008000401C1B0020F0B5D6468C
:102700004F464646440098462418324BA400E4182D
:1027100063688A469146C0B5FF2B02D880235B00D0
:102720006360061FF6B2012E2FD9C02380222A4FE4
:1027300085009B0179591201E3181A6000291BD109
:102740004B4622685B015340E02213408022520135
:10275000A2181360012E30D9802380229B01E31838
:1027600012011A6080235B00636043467B51E0BC2A
:10277000BA46B146A846F0BD786900F0A5FA013026
:1027800043001B18033BFDD2DAE75346012BCCD1A3
:10279000C02303229B01E3181A60023AA3681A427D
:1027A000FCD04A46236852015A40E023134080225D
:1027B0005201A218084F1360850050460323216878
:1027C00041400B40136001228240A3681A42FCD0B2
:1027D000C2E7C046008000401C1B0020014B800067
:1027E000C05870471C1B0020F0B5C646040000B559
:1027F0002348160098460D0000F066FA01003000EC
:1028000000F062FA4346069A1B04120313439C46E7
:1028100023680600002B22DB1A4B1B48E218531ECC
:102820009A4180235242120B9B011203D218174B7C
:102830001A60174B1A60130001688B43FBD12122E9
:10284000144B2560E318A6601A602268002AFCDA9F
:102850006246E26008221A6080BCB846F0BD3F23A1
:1028600022681340AB42D7D1A3681B051B0D8342DE
:10287000D2D1EE22E368D20213406345CCD1EBE71C
:10288000001BB7000040FDBF08C0004000E0004052
:1028900000F000400430000010B580241C4BE4051B
:1028A0001C6000281AD001231A4C18431A4BDC6113
:1028B0001A4C44401C62596298628021144BC9052D
:1028C0001960174817490860E021C9041960002AF7
:1028D00007D18022144B12061A6010BD0E4BD8612E
:1028E000EBE753019B1A9B009A18802312015B04AB
:1028F0009A4209D213000D490B60074B5A6080229F
:10290000094BD2051A60E8E7094B1A00F3E7C04605
:1029100000B00540D3C007B0008005402D3FF84F00
:10292000FCFF01000820014000A00540941F00208A
:10293000FFFFFF008023024A9B000B43D3627047D6
:1029400000800540002310B50100988A1B8B984732
:1029500010BDC046162310B5010018885B88984743
:1029600010BDC046F8B54746CE4680B50F1E18D0FC
:1029700014239946043304000025012698464B464B
:102980001888434621681B88984701C4431E984114
:1029900001350640AF42F2D13000C0BCB946B04666
:1029A000F8BD0126F8E7C046002370B504000D000D
:1029B000988A05491B8B984703000020002C01DBF7
:1029C0000130A0402900984755420000AA23064A3A
:1029D0001B0113608D235B00D3600449044B196015
:1029E0005368002BFCDA70470040024000B0FA0048
:1029F000006002407047C04610B50148FEF72EFE49
:102A00006485001070B5074D074EB54209D2002409
:102A1000013E761BB608013608CD01349847B44212
:102A2000FAD170BD288300106483001070B5074D83
:102A3000074EB54209D20024013E761BB608013686
:102A400008CD01349847B442FAD170BD5C830010C0
:102A500064830010054B064A06491A60064A074B74
:102A60001A6010000B689843FBD1704700E00040EB
:102A7000BFCDFBFE08C00040FE7F3C0000F00040E0
:102A8000044BDB6C002B03D18022034BD2021A6073
:102A90007047C046000011504C201150044A054BAD
:102AA0001A60054A1368DB018033FBD17047C046CA
:102AB000FFFFFF0100F0004008C000404022034B30
:102AC0009A675A671A67DA667047C04600F0014095
:102AD00010B5FEF779FE10BD70B52849284D294E76
:102AE0006D1AAC102200302C00D930223000920038
:102AF00001F010F8BC2D3DD823002A3B224A052BBB
:102B00001DD9302075196D07A446001BEB0F002D51
:102B100003DA611C8C46A1007250C01AE3189B00B6
:102B20004108F318C900C9181A605A60083399425D
:102B3000FAD1012303421DD0984360440400A3004E
:102B4000F250631C2F2C15D09B00F250A31C2E2C8E
:102B500010D09B00F250E31C2D2C0BD09B00F250A8
:102B6000231D2C2C06D09B00F250631D2B2C01D072
:102B70009B00F250054B9E6070BDC04600010010E6
:102B8000C001001000000020C101001000ED00E0B5
:102B9000002310B5294C82B0A367FFF717FF01226D
:102BA000274B1A60636C012BFCD10322254B1A6062
:102BB000224A936B012BFCD1013300930121224A5D
:102BC00022480433FFF710FE052301210093204A19
:102BD0002048FFF709FE0022022104201E4BFFF7C8
:102BE0008DFD0022012105201C4BFFF787FD0022EF
:102BF000002107201A4BFFF781FD00220021082049
:102C0000174BFFF77BFD8023DB00009300220021A0
:102C10000920134BFFF7FCFC0022104B002106207B
:102C2000FFF76CFD0420FFF7D9FD0E4900F04CF8CA
:102C300001000020FFF77EFE02B010BD00800040C2
:102C40003CB0004030B00040002F68590080024086
:102C5000008C864700C00240001BB7004059730734
:102C6000006CDC0240420F0001480421014B184770
:102C70001010002065290010124A936F9B0815D28E
:102C80009066D166002905D0FFE7FFE7FFE7516FA7
:102C9000106F704704B580210906C2175140002803
:102CA00000D0C84305F0F8FA002104BDF0B5146E59
:102CB000556E576F166FFFF7E3FF1466556657673B
:102CC0001667F0BD000000D0114A936F9B0813D225
:102CD00010665166002905D0FFE7FFE7FFE7516F57
:102CE000106F704704B5002801D00020C04305F0E4
:102CF000D3FA002104BDC046F0B5146E556E576F6F
:102D0000166FFFF7E5FF1466556657671667F0BD47
:102D1000000000D094464A4A926F9208624601D25F
:102D200028E0C046F0B5464E346E756E776F366F4C
:102D300000F020F89446424A1466556657671667B5
:102D40006246F0BD94463E4A926F9208624601D2B6
:102D500054E0C046F0B53A4E346E756E776F366FFC
:102D600000F04CF89446364A146655665767166765
:102D70006246F0BD002B24DB11D000293EDA00B5FD
:102D8000C943404200D1013100F038F8C943404204
:102D900000D10131DB43524200D1013300BD002A92
:102DA000EBD1002801D1002905D00020C90FC907A7
:102DB00001D1C043410800B505F066FA00220023A6
:102DC00000BD00B500290ADBDB43524200D10133CC
:102DD00000F014F8C943404200D1013100BDC9439D
:102DE000404200D10131DB43524200D1013300F0B7
:102DF00005F8DB43524200D1013300BD002923D145
:102E0000002B18D1002A0CD0BC460D4F38667A66CC
:102E100000210023FFE7FFE7FFE77A6F386F67467F
:102E20007047002801D00748010000B505F02CFAD2
:102E30000022002300BD02000B000020002170478B
:102E4000000000D0FFFFFFFF002B00D0BFE0130CFD
:102E500028D1002AE7D080B4114F39667A66FFE79F
:102E6000FFE730B4040C7B6F396F1B0423433B66D0
:102E70007A66FFE7FFE7FFE7C04684B27B6F3D6FEE
:102E80001B0423433B667A66FFE7FFE7C046002347
:102E90002C042D0C7A6F386F00196941B0BC704753
:102EA000000000D0F0B594460025140E01D11202A6
:102EB0000835140F01D112010435940F01D192008D
:102EC0000235D40F01D152000135D40B0134254F06
:102ED0007C66254C3C660E0C93B2FFE7FFE7FFE7EC
:102EE0003C6F6643360C7703BE467343DF0B5B04CF
:102EF000C01AB941130C7343DB18C91ACE086643D4
:102F0000360CB64493B273431F0F1B01C01AB9416C
:102F1000130C73431F0B1B05C01AB941860D8F029A
:102F20003E436643360C092D24DB520A7243801A55
:102F30007703460A6643360C16235B1BDE40DF40F0
:102F4000BF1964466643821B704604350633010090
:102F5000D940A840C01900D30131A24206D20023B3
:102F6000F0BD0000000000D0FFFFFFFF121B01308A
:102F7000F3D3F1E709277F1BFE406446A2B27243F8
:102F8000801A00D20139220C7243130C1204821AE7
:102F900099410B007046043513370100F940A840F1
:102FA000801900D30131002B02D1A2420AD2F0BD18
:102FB000013000D30131121BFAD2013BF8D1A242F9
:102FC00000D2F0BD013000D30131121BF7E7F0B59C
:102FD0001C0C00D080E00CB400251C0A04D11B029C
:102FE000160E3343120208351C0B04D11B01160FB9
:102FF0003343120104359C0B04D19B00960F3343DD
:1030000092000235DC0B02D192185B4101351C00A5
:10301000971864410134464F7C66464C3C660E0C62
:10302000FFE7FFE7FFE7C0463C6F6643360C7703D8
:10303000BE4697B27743C01B00D20139C01B00D2F5
:1030400001399FB27743C91BC91B170C77437E0414
:10305000FF0B801BB941CE086643360C0C2D33DBC9
:10306000B644120B1F053A431B0B97B27743C01BA4
:1030700000D201399FB27743C91B170C77433E0436
:103080003F0C801BB941860D8F023E4366432927C2
:103090007F1BFE400C3D7746AF40BF1930BCA2B24B
:1030A000ABB272437343801A9941220C7243130CE2
:1030B0001204801A994102000B000137001BA9413C
:1030C000F9D2781E0021F0BD0C277F1BFE40774609
:1030D0007F0BAF40FF19E0E700245D1C07D0144FC1
:1030E0007D663966FFE7FFE7FFE7FFE73C6F95B2D4
:1030F0009EB265436643401BB141150C1E0C6543EF
:10310000664336042F0C3E432D04401BB1419942C7
:1031100004D202000B0020000021F0BD01D190423A
:10312000F7D3801A994101349942F2D3F6E70000AF
:10313000000000D0FFFFFFFF48404140484018B466
:103140001B4B5B68FC46019308BD04DFE3330010B2
:1031500018B4174B1B68FC46019308BD00DFED3324
:1031600000109446134A926F920809D2624618B42E
:103170000F4BDB68FC46019308BD0CDFA536001041
:103180000C4AF0B5146E556E576F166F6246FFF716
:10319000EEFF084A1466556657671667F0BD18B407
:1031A000034B9B68FC46019308BD08DF49350010BE
:1031B00030130020000000D0FFB550404240504086
:1031C00059404B40594000E0FFB5154F4C00640D8D
:1031D00003D0BC4204D10C0314D80020090D09050A
:1031E0005C00640D03D0BC4204D11C030AD8002249
:1031F0001B0D1B0501264B4009D44B4003D58B42C8
:1032000000D18242FFBD9942FCD19042FFBD0B43E9
:10321000DB1803431343F5D0C9434918FFBD000031
:10322000FF07000000B5FFF7CFFF804100BDC0469B
:1032300000B5FFF7C9FF01D9002000BD012000BD86
:1032400000B5FFF7B9FF01D9002000BD012000BD86
:1032500000B5FFF7B1FF804100BD012040054A00E5
:10326000121804D85A00121801D800207047012003
:10327000704700000021002805D17047C117484061
:10328000401AFAD0C90713B5064B1B6898470CBC07
:10329000441CA2401005120B0349091B09051943E0
:1032A000114310BD702100201F04000010B54C0018
:1032B000620D8023D218DB00D21A5B057E2A10DD56
:1032C0009E3A13DACC170903490819435242D140F8
:1032D000640001341532202A05DAD04008436043E7
:1032E00010BD002010BD0846604310BDC80FC018B7
:1032F000013810BD18B4044B5B6AFC46019308BD4D
:1033000024DF55380010000030130020132370B55F
:103310001D78012D19D014DD1F48FFF71BFB060097
:103320001E48FFF717FB1E4C80223100200000F0E2
:10333000F1FB022D2DD01B48FFF704FB1A4B186040
:1033400070BD1A4B164CA364F5E7184B144C236060
:103350006360A360E36023616361A361E36123624F
:103360006362A362E36223636363A363E36323642F
:103370006364A364E36423656365A365E36523660F
:103380006366A366E36623676367A367E367A36473
:10339000D1E7064BA364CEE7534400005346000038
:1033A000301300204C33000070210020B133001096
:1033B00007B5604601880A0A0230DF2AFAD1C9B28D
:1033C000820804D3028840880004104300E00068AB
:1033D000014A5050039007BD301300200FB403BCC6
:1033E0000CBCF0B50124E407634000E0F0B50C0D1F
:1033F000CF0F661E3605891B640503D3C9434042BF
:1034000000D30131640D03D0661CF60A07D0E41B1B
:1034100000207F00791C89078912803C24031D0D40
:10342000DF0F6E1E36059B1B6D0503D3DB43524237
:1034300000D301336D0D03D06E1CF60A07D0ED1BCF
:1034400000227F007B1C9B079B12803D2D032F1BBE
:10345000661B58D4A446202E46DA20371400BC4000
:103460001D00BD40F24033412A4380185941CB0F23
:1034700005D0C943C04300226442504151416246D5
:103480004D0D28D10D0D07D100281FD02419404122
:103490004941013A0D0DF9D0640006D3013000D343
:1034A0000131002C01D140084000013A0BD4941C9A
:1034B000E40A04D112051144DB071944F0BDD90711
:1034C000204B194300E0D9070020F0BD0029DDD1D1
:1034D000002CDBD1F0BD0132C6074008CD072843E0
:1034E0004908002EE1D0D9E73C2E29DA203E4037AA
:1034F0001400BC4000D00124F24014431A00BB4029
:103500001C43D317ACE7AC46202F08DA2036040062
:10351000B4400D00B540F84039412843A5E73C2FA1
:103520000CDA203F40360400B44000D00124F840BB
:1035300004430800B1400C43C117EAE7100019002A
:10354000002494E70000F07FF0B50C0D661E3605F0
:10355000891BE60A6405640D02D0651CED0A04D0DF
:10356000002001210905803C2403A4461C0D671E90
:103570003F05DB1BE70A6405640D02D0651CED0AFC
:1035800004D0002201231B05803C240377406444BF
:1035900097B484B296B27443070C7E43150C6F4304
:1035A00080B26843361802D3012000043F1830046B
:1035B000350C00197D41844688B29AB250430C0CF8
:1035C00062431F0C7C438EB27E43921902D30126C4
:1035D0003604A4191604170C3618674101BC81B2D1
:1035E0009AB25143040C62431B0C5C4380B25843B3
:1035F000121802D30120000424181004130C4018E0
:1036000063412D185E410020474106BC88B293B249
:1036100058430C0C6343120C544389B251435B185A
:1036200002D301210904641819041A0C0918624113
:103630006D1856410020474118BCF902720D114324
:10364000F0026A0D1043ED020A0D03D16D194041DD
:103650004941013B124E9B1B7600B3420ED26D00D6
:1036600007D30130002671416646354301D1400839
:1036700040001B05C918E4072144F0BD0BDA0133F3
:1036800006D1013004D101314F0D01D04908F2E7D4
:10369000E1070020F0BD013631050020EBE7000016
:1036A000FF030000F0B51C0D671E3F05DB1BE70A9A
:1036B0006405640D02D0661CF60A04D000220123C2
:1036C0001B05803C2403D0252D060026F6432E66DC
:1036D0001E096E66CE0FF619B44649004F0D02D092
:1036E0007E1CF60A03D000200021403F3F033E1B12
:1036F000B600B444013F7F05C91B49082E6F01364F
:1037000076089C02950D25437543ED137543AD1363
:1037100001356D10F603761B0CB4CC02450D2C431D
:10372000A2B2B3B25A43270C7B43350C6F43A4B209
:103730006C431B1902D3012424043F191C041D0CE3
:10374000A4187D4124196D41009A91B2ACB2614335
:10375000170C7C432B0C5F4392B25A43A41802D33C
:1037600001221204BF182204230C52187B41019C31
:103770006C431B19520ED9010A434401A01A81B2AD
:10378000B2B2514303145A43360C734387B27743A2
:10379000D617D21900277E4136049B191704160C40
:1037A0007F185E417316ED18F301002680337541D2
:1037B000A90F06D16400690AE8055B0A184309D21B
:1037C0002FE00422944480337541A90AA8059B0A7E
:1037D000184326D3404149412404009A019B0D001F
:1037E0005543641B4343E41A95B286B27543170CE4
:1037F0007E43030C5F4392B25A43B61802D30122B0
:103800001204BF183204330C52197B4152429C41BE
:10381000002C02D40022013051414008CA07104355
:10382000490802B06246D7079210084BD218084BDD
:103830009A4203D212058918C919F0BD0020002A46
:1038400001DC3900F0BD01331905F5E7FD03000087
:10385000FE070000002200B5203200F004F8080046
:1038600000BD000000220B150AD410B5944600F0EC
:1038700031F81414013400DA0021CB17144C20471E
:103880000020002170476244343A0CD40C2A07DA35
:1038900004009140904052422032D440214310BD58
:1038A000D843D94310BD203207D40C46944052422D
:1038B00020321141D040204310BD0800C9172032EA
:1038C00003D452422032104110BD1800190010BD1F
:1038D000873800100A0DCC0F531E1B05C91A52055C
:1038E00003D3C943404200D30131520D03D0531CCE
:1038F000DB0A07D0121B00206400611C89078912B3
:10390000803A1203014BD21A70470000FF030000F7
:1039100051434343C9188C46110C83B24B4310B436
:10392000040C614392B280B2504362431C041B0CEE
:10393000001910BC59411304120CC01851416144C4
:10394000704700004840414048400E4B5B681847B4
:103950000C4B1B6818470C4A936F9B0802D2094B0B
:10396000DB681847F0B5146E556E576F166FFFF78A
:10397000F6FF054A1466556657671667F0BD014B9A
:103980009B68184730140020000000D0491A002816
:1039900008D1084670470000C10FC90700D5404252
:1039A000002817D0F44603B40B4B1B68984706BC9D
:1039B00081409E384042803107D20B0607D0490033
:1039C000490AC0051043084360470130F8E7490A37
:1039D0008902F5E7704700007021002041000A0EBF
:1039E00080231B067E2A0BDD9E3A0BDAC1174002AC
:1039F000400818435242D0404900013148437047C3
:103A000000207047C00FC01801387047C0420DD366
:103A100000B540004008002100F012F8002801D451
:103A2000404200BD8020000600BD0000034BDB6962
:103A3000FC4618471CDFE13A00100000301400205B
:103A4000014B5B6A1847000030140020132310B5A7
:103A50001C781348FEF77EFF012C0BD004DD01001B
:103A60008022104800F056F80F48FEF76BFF0F4B0E
:103A7000186010BD0B4C01005422200000F04AF8E1
:103A80000B4B6365A365E36523666366A366E36624
:103A900023676367A367E3672362E361E4E7C046E4
:103AA00053460000301400204C33000070210020E9
:103AB000B53A001007B5604601880A0A0230DF2ACD
:103AC000FAD1C9B2820804D30288408800041043A6
:103AD00000E00068014A5050039007BD30140020F8
:103AE0000021C2158032803201D0024A10470020E6
:103AF00070470000CD2A000001480421014B1847FF
:103B00002010002065290010014B1B681847000099
:103B100020100020014B5B68184700002010002097
:103B20007047C046F8B5DE4657464E464546E0B5B6
:103B300099460D9B0700884693469B0728D00B9B10
:103B4000002B3CD016000B9C0A9D3619321B013C01
:103B50004B464146285DB847002CF7D135000D9BF8
:103B60009B070ED55B46EC1A0C9BA34209D91E009D
:103B70002A004B46414620200134B8470135B44263
:103B8000F6D32800F0BCBB46B246A946A046F8BD15
:103B90000B9B0C9A934214D213005D460C000B9AB7
:103BA0009E1A76192A004B46013521002020B8477D
:103BB000B542F7D10B9BA046002BC4D1E1E715001D
:103BC000CDE75E46002BBED15D46DAE7F0B54F4645
:103BD000D6464646C0B584B09C460EAB1F78129BB5
:103BE0009146BA460D9C109E119D9B074CD4002D0A
:103BF00041D1B44248D20123129F1F40B8460C9BCA
:103C00005F1E302303E001343B55A64201D9202C2E
:103C1000F9D14346002B00D187E00C9B5F1E302377
:103C2000A54204D830E001343B55AC422CD0202CC6
:103C3000F9D1129BDB060DD5129B5B0557D4A6422A
:103C400067D0A54265D00F9B102B53D0022B5BD0C1
:103C5000202C36D12023129C01930C9B4A460093C2
:103C6000039463460295FFF75DFF04B0E0BCBA46DB
:103C7000B146A846F0BD0123129A1340984601238D
:103C800013422DD1B442BAD3129BDB061ED5129B30
:103C90005B05D8D4002CD2D10F9B102B60D00F9B8A
:103CA000022B71D0302301240C9A13705346002B41
:103CB00011D1129B5B0740D52B260C9A631C16551D
:103CC000C9E72300013430260C9AD654202CC1D0E9
:103CD0005346002BEDD02D260C9A631C1655BAE7DF
:103CE000002F34D0013DB44200D288E795E70F9B06
:103CF000102BAFD1129B9B063CD5202CAAD0582369
:103D00000C9A13550134A3E7202CA3D023000134CF
:103D100007E0631E012CBFD00F9A102A36D0022A6A
:103D2000D1D162260C9AD65492E7129BDB06CDD5F0
:103D3000129B5B0500D482E785E7129A23001607E1
:103D400000D488E720260C9A0133165583E70C230C
:103D500013405F1EBB41ED1AB44200D24FE75CE74F
:103D6000129B9B060ED478230C9A022413703023E6
:103D700053709BE7202C00D16CE778230C9A1355E5
:103D8000013465E75823EFE76033EDE70C9AA61E90
:103D9000B618129A920602D55822327093E778220A
:103DA000327090E710B5002800D110BD01F0ACFBD7
:103DB000FBE7C04610B5002803D04A680B68110025
:103DC000984710BDF0B54E46DE4657464546E0B52D
:103DD00095B083468946924698461E9A1F9B1000CE
:103DE0001900209EFFF739FA002800D0D2E11E9872
:103DF0001F990122C44B5242FFF714FA002800D049
:103E000001E11E981F990122C04B5242FFF720FA90
:103E1000002800D0D6E01E981F990022BC4BFFF767
:103E200017FA002800D0B5E01E981F990022B94B60
:103E3000FFF7F8F9002800D0ACE01E981F99002287
:103E40000023FFF7EFF9002800D0D1E000230B9307
:103E5000229B5B0500D406260024302306E006AA38
:103E6000013417321355013E202C01D0092EF6D80B
:103E70001E981F99FFF71AFAA74BF2009B180CCB5C
:103E8000050008920993FFF7F9F902000B001E984C
:103E90001F99FFF754F9089A099BFFF780F90690DC
:103EA0000791FFF727FA0700FFF7E4F902000B007C
:103EB00006980799FFF743F90022984B069007915F
:103EC000FFF7C6F9002800D1E9E001373800FFF715
:103ED000D1F902000B0008980999FFF7A9F9002809
:103EE00001D000270135002E00D1B7E0069513E080
:103EF000172306AA9B180A21380001341D19FEF762
:103F0000E3FE3031297038000A21013EFEF7DCFE65
:103F1000092F00D8E1E00700202CE9D1069D2024DC
:103F20000CAB0693172706ABFF180DE028000A21FB
:103F3000FEF7A2FE01343031280039550A21FEF780
:103F40009BFE051E00D1B7E0202CEFD10323229A5F
:103F50001340012B17D1219B002B14D00B9B002B5E
:103F600000D1E3E0219B013B2193202B0BD930238F
:103F7000219A06E006A9013417310B55944200D36B
:103F8000A0E0202CF6D1229B01940393219B029365
:103F9000069B21E0229B52460493219B49460393B2
:103FA00058461E9B1F9C029600930194434600F0C6
:103FB00043F90400200015B0F0BCBB46B246A94648
:103FC000A046F0BD229B5B070FD40322544B2299DD
:103FD000019203912199029100935246434649462A
:103FE0005846FFF79FFD0400E4E704224D4BEEE73F
:103FF0001E9A1F9B00200021FFF7A1F801231E90AD
:104000001F910B9324E70223229A54461A40229BC5
:1040100006929B0700D1ACE02600434D08942F1F69
:104020003200E87843464946013DD8470136BD4253
:10403000F6D1089C069B0434002BBBD05746219A2E
:10404000E31B9A42B6D91500220043464946202078
:104050000134D847E31BAB42F6D3ABE72800FFF7A8
:104060000DF902000B001E981F99FFF768F82B4B03
:10407000002206000F00FFF7D5F80CAB06930028CE
:1040800000D04FE7002230003900244BFFF7E0F862
:10409000002800D046E7012301359D4342E7002276
:1040A000069807991D4BFFF7BDF8002800D01AE7C6
:1040B000002F59D1013716E70323229A1340012B11
:1040C00000D1A6E0202C00D15DE70B9B002B3AD05D
:1040D0002D23069A1355013455E7069D202C00D157
:1040E0001DE73023361906E006AA013417321355AE
:1040F000202C00D113E7A642F6D12E230CAA0134BE
:10410000069293550EE7C046FFFFEFFFFFFFEF7FDC
:1041100065CDCD4165CDCDC1D88800100000E03F10
:10412000BC850010B4850010C48500100C23229AB1
:10413000134257D0219B013B2193A34200D916E79C
:10414000202C00D11FE7229B5B0704D52B23069A66
:104150001355013417E7229B1B0700D413E72023D4
:10416000069A135501340EE7FB0700D4BBE601376E
:10417000B9E6219B042B00D84EE755464F46043C38
:10418000E4182A004346013539002020D847AC42C4
:10419000F7D141E70227229B55461F409B0726D0B7
:1041A00006975F46234EEC1C2A00B07843464946EA
:1041B0000135B847013EAC42F6D1069F002F00D131
:1041C000F8E65746219AE31B9A4200D8F2E615001A
:1041D00022004346494620200134D847E31BAB4226
:1041E000F6D3E7E6219BA34200D9C0E6CBE6219BAC
:1041F000032BD5D9069754464F46033DED182200B0
:104200004346013439002020D847A542F7D1069F04
:10421000C6E7219B002B00D154E70B9B002B85D0D8
:10422000219B013B21939C4200D2A0E6202C00D090
:104230004EE7A8E6C0850010F0B54546DE46574675
:104240004E46E0B59BB0249C259D82468846934609
:10425000994622002B0020002900FEF7FEFF0028CF
:1042600000D0C1E00122200029007C4B5242FEF721
:10427000EFFF002800D0B7E0012220002900784B92
:104280005242FEF7CFFF002800D0ADE0002200230D
:1042900020002900FEF7C6FF002800D0BBE10894EB
:1042A0000995089809998023289ADB001A400F92F3
:1042B0008022289E1201164032000E96289E0F0082
:1042C0000A901E4200D0A4E00B00034300D0CBE0D4
:1042D000002A00D012E23200063326930223134054
:1042E0000C930223134200D00AE2279B042B00D236
:1042F00015E200270426043B0E9300220023200031
:104300002900FEF78FFF002800D0C8E1554B289AFE
:10431000134004930E9B0393269B0293089B099CD6
:104320000093019441464B465A465046FFF74AFDDA
:1043300002002020289B0025034059424B415B424C
:104340001840531C089341464B464530D047FB1755
:10435000FC185C40FB0F1F270A93731E0E930AABD9
:10436000FF1806E020000A21FEF7AEFC0400202D15
:1043700008D00A212000FEF7A7FC0135303179551D
:10438000092CEFD8052306930E9B56460593002370
:1043900004930A3303930A9B4146029312AB0093A2
:1043A00030004B46089A0195FFF710FC0C9B002B40
:1043B00028D05F46279BC41BA34223D982461D00F9
:1043C0003A194B46414620200134B047A542F7D860
:1043D00050465946279C421A01320023944200D38A
:1043E00095E1013018180DE0289B00940195049385
:1043F000279B0393269B02934B465A4641465046C1
:10440000FFF7E0FC1BB0F0BCBB46B246A946A04695
:10441000F0BD01432AD10E9B3200002B00D15DE795
:104420000027269B0026BB4200DD82E100220023FC
:1044300020002900FEF7F6FE002800D04BE1289B63
:10444000084A02961A408023DB0013430493279BFB
:104450000393089B099C00930194CDE7FFFFEF7F36
:10446000FFFFEFFFFFF7FFFF06232693B24B780015
:10447000400DC018FEF702FFB04AB14BFEF78FFEA9
:10448000B04AB14BFEF764FE3F03B04B3F0B3B43DA
:104490000C900D9100220A981900AD4BFEF74FFECB
:1044A000AC4AAD4BFEF77BFE02000B000C980D9959
:1044B000FEF74EFEFEF7FAFE0700FEF7DFFEA74A04
:1044C000A74B0A900B91FEF76AFE0022A54BFEF760
:1044D0003FFEFEF7EBFEA44A06000A980B99A34B99
:1044E000FEF75DFE0A900B913000FEF7C7FEA04A72
:1044F000A04BFEF754FE02000B000A980B99FEF742
:104500001EFE02000B000A900B91FEF748FE0C9075
:104510000D910A980B9902000B00FEF719FE00227C
:10452000109011910C980D99934BFEF71AFE0022F2
:10453000924BFEF70DFE02000B000C980D99FEF752
:1045400010FE00228E4BFEF703FE02000B000C98BB
:104550000D99FEF706FE0A9A0B9B0C900D91802197
:104560000020C905FEF7EBFD02000B000C980D9929
:10457000FEF7EEFD02000B0010981199FEF7F1FD19
:104580000022724BFEF7E4FD7E4B0022F618330545
:10459000FEF705FE02000B000A900B91089809999E
:1045A000FEF740FE002808D00A980B990022734BB2
:1045B000FEF7D7FD0A900B91013F0A990B9A0B0069
:1045C00011003A006332C62A12D802222898042623
:1045D00010400E9A0C90002A26D1279B042B05D957
:1045E000002800D0A1E0279B043B0E93042642E064
:1045F0000222289810400E9A0C90002A13D1279B73
:10460000052B00D889E0002800D084E0279B0526F0
:10461000053B0E9332E080231B069C46AC44634668
:10462000089409933DE605260B4300D1F9E6089866
:104630000999554A554BFEF703FE002808D0089803
:1046400009990022524BFEF7EDFD002800D0E8E664
:10465000269B002B34D00F9B002B31D0269B013B97
:104660002693279BB34204D90C9B002B59D00223DD
:104670000C9300230E93002F00D13EE60A9A0B9B69
:1046800008980999FEF76DFD002208900991002312
:1046900020002900FEF7C6FD002800D136E6089C60
:1046A000099D289A80203B4B00061340220004936A
:1046B0000E9B0393269B02932B180092019331E6E5
:1046C000279BB342D5D90C9B002B2AD000230E93F5
:1046D00002330C93CFE7289B2E4A8020089C099D2B
:1046E0001A408023DB00134322000493279B00061B
:1046F00003932B180092019302967DE6052695E61A
:1047000000230E930233002704260C93F5E54B1E7D
:104710001B191B1A65E602230C930526AEE704233A
:10472000E7E5279B9B1B0E93A5E7022304260C932A
:10473000A1E7DB1B5E1E79E601FCFFFFFB799F50C2
:104740001344D33FB3C8608B288AC63F0000F03FB4
:104750000000F83F61436F63A787D23F71A37909D7
:104760004F930A400000E03F1655B5BBB16B0240C5
:10477000EF39FAFE422EE63F00002C4000002440B4
:1047800000001840FF0300002D431CEBE2361A3FE7
:1047900080842E41FFF7FFFFF0B55746DE464E46B8
:1047A0004546E0B5A3B01F002C9B92460C93C94A26
:1047B000C94B8B460B901A60002900D1BFE1002342
:1047C00038789946002800D1C1E1C44B4C46099382
:1047D000C34B0E935B460A9308E0220053460A99A6
:1047E0000B9DA84701343878002876D0013725285A
:1047F000F3D110239B46083B9946043B9846033B64
:10480000002602259C463878791C0300203BDBB249
:10481000102B03D8099A9B00D3589F460300303BC6
:10482000092B36D900252A2800D1A7E000230D93B3
:104830002E283FD00300683BDBB2122B1BD80E9A08
:104840009B00D3589F4663460F001E43DBE70F00D3
:104850002E43D8E743460F001E43D4E75B460F00C4
:104860001E43D0E74B460F001E43CCE780237878E9
:104870005B001E4301310F00672845D82428ACD9BE
:104880000300253BDBB2422BA7D896499B00CB58AF
:104890009F460025AB005D196D002D1808780F00AC
:1048A0000300303B303D0131092BF3D900230D9338
:1048B0002E28BFD13022802052429046C0000643AD
:1048C00078780B0080444246092A00D851E12A2812
:1048D00000D15EE10F000131ACE70A9BA1469B4687
:1048E000CA4503D801235B425344994653464A467E
:1048F000594600200B9DA847200023B0F0BCBB46C2
:10490000B246A946A046F0BD0300693BDBB20F2BBF
:1049100000D962E7012199408846734A11408B46CD
:10492000110042460A4200D013E10A2B2FD0072B78
:1049300000D052E70C9D01CD002800D134E12123A5
:104940001E43B0461F260D9A12ABF618A146944698
:104950005946340002E0000920290AD00F260640FB
:1049600032003732092E00D8073A013162540F283D
:10497000F1D863464C468B460D9322E10C9B20CB2D
:10498000002D52DB78780C930F0001314EE70C9B21
:104990000D9904CB90469B46002900D128E143465F
:1049A00018784144002801D100F029FC0D9A944662
:1049B0000A0004E059780133002900D195E19A42B8
:1049C000F8D163460D934346D31A0F93730500D471
:1049D0006CE10F9B0D9A934200D90F9202231A00AB
:1049E00032400C92334200D191E20C930D9BB946B8
:1049F0001E1943461B1BA84622001F000B9D08E002
:104A0000541C53460A99A847385D002800D163E139
:104A100022009642F4D145464F4634000C9B002BB1
:104A200000D097E15B460C93DDE6022278781643CE
:104A30000F006D420C930131F8E678786C2800D1B4
:104A400059E180235B001E43013114E780239B0062
:104A500078781E4301310EE77878682800D150E15C
:104A6000802301311E4306E7672800D1C2E04728B2
:104A700000D134E1452800D134E107210C9B0D9A87
:104A800007338B4319000496039502920CC90B98C7
:104A9000009201930C91220053460A99FFF7CCFB38
:104AA0000400A0E6462800D1A8E007210C9B0D9A3F
:104AB00007338B4319000496039502920CC90B9897
:104AC000009201930C91220053460A99FFF77AF95C
:104AD000040088E699470010901F002038870010D6
:104AE0007C870010C88700104190000022005346C8
:104AF00025200A990B9DA847013474E60C9B0433CA
:104B00009B46631C9846B60700D4FFE00C9B22002E
:104B100018780A9953460B9EB0476419012D00D8A6
:104B200049E245460B9EB8460A9F2A005346013586
:104B300039002020B047A542F7D1474672E7DB4B4A
:104B400038780B9300239946002800D03DE60024D6
:104B5000C6E66F2855D000D8BCE21023782800D1D3
:104B60009EE09E430A239C4600230F930A339B46F4
:104B70004DE000218A0052185200013311181878B4
:104B800030390200303A092AF4D90D911F00591C1E
:104B900050E60C9BB87804CB0237D143C9170A40C2
:104BA0000D920C93791C45E6102330009843113385
:104BB0001843802380463000DB0018401E4200D19D
:104BC000C0E643460693082305930D9B22000493F9
:104BD00010230393002302935B4601931AAB0093C7
:104BE0000A9953460B98FEF7F1FF0C950400FAE57D
:104BF0000139D4E680231B011E433EE720231E43D8
:104C000053E708239C4600230F9308339B468023D9
:104C10003000DB0018401E4200D11AE10D233100A4
:104C2000994380230A009B001A409146194200D004
:104C3000C3E180230A005B001A4090460C9A0432BC
:104C40000F92194200D08FE24B0600D597E10B0678
:104C500000D4E5E20C9B1B8899464B46002B00D004
:104C600005E210339943002800D100E20023984662
:104C70000D9B069104935B460393002305950293D5
:104C80004346D9E0582808D0622878D102239C46B0
:104C900000230F9302339B46B9E720231E43103BAA
:104CA0009C4600230F9310339B46B0E702231A0063
:104CB00032400C92334200D105E20C934346B94690
:104CC0000B9E0A9FA8461D1B220053463900013443
:104CD000B047285D0028F7D145464F469EE6802321
:104CE0001B011E4320231E43C7E662460D92424627
:104CF0009B1A0F936AE6C0239B00B8781E43F91CE9
:104D0000B9E5C023B8781E43F91CB4E5012D00D8DD
:104D10004AE1631E9946A9444B4652462600A146E5
:104D2000BA461C001700A8460B9D32003B00013616
:104D300020200A99A847A642F7D13B0057469A4639
:104D40004C460C9B320018780A9953460B9D4444FC
:104D5000A84767E6A0460F9B9D4200D862E62C1943
:104D60000B9E4546B8460A9FE41A2A005346013571
:104D700039002020B047A542F7D1474652E68023AC
:104D80003200DB001A4090461E4200D1F3E01121B0
:104D90008E43B4469846802362469B001A40934651
:104DA00062461A4259D180235B001A4091460C9A00
:104DB00004320F9262461A4200D0A0E163465B06BD
:104DC00000D5D4E063461B0600D412E20C9B0022FF
:104DD0009B5ED8171918414089B2DA0F0C92002B4C
:104DE00000D187E188461F2612ABBB461495F71801
:104DF00045464E46E046A14606E028000A21FDF75A
:104E000063FF0500202E08D00A212800FDF75CFF73
:104E100001363031B955092DEFD84C46C446B1465C
:104E20005F46149D634606930D9B059504930A23E4
:104E300003930C9B02934B4601931AAB2200009301
:104E40000A9953460B98FEF7C1FE0F9B04000C9382
:104E5000C9E40C2331009943E3E608220721914677
:104E60000C9B07338B4399444A460ACB08000C92AB
:104E7000DA0F9346184300D085E000239946434655
:104E8000002B2FD1002200231092119300231F2604
:104E9000994612ABF6185B461495BB46E0463700C0
:104EA0000F934E46A146109C119D05E0213B00103A
:104EB00004000D00202E0CD00A220023200029001F
:104EC000FDF740FF01363032BA55002DF0D1092CE4
:104ED000EED80F9B109411955F464C46C446B146E0
:104EE0009B46149D634606930D9B059504930A23E8
:104EF00003935B4602934B4601931AAB2200009347
:104F00000A9953460B98FEF761FE04006BE40F9B71
:104F10009D4200D896E18023DB000C930F9B2E1955
:104F2000F61A43460F930D9BA84699465346BA4638
:104F30001F000B9D22003B00013420200A99A84746
:104F4000B442F7D10F9B454698464B460D933B0024
:104F500057469A4643461878002800D162E56B1CF4
:104F60000F930C9B002B00D1A8E600233DE50C9B82
:104F70001B78190031E710239E43B4460BE70C9BC6
:104F80001B78994669E6DA17129213924A401092FA
:104F9000129813990A005A401192109A119B121AF2
:104FA0008B411092119371E70C9B220018780A999B
:104FB00053460B9CA047444634E5082207269046FA
:104FC0000C9B0733B343984442460C921A685B68C3
:104FD000149208931300089A134305D11033994390
:104FE00000239846002838D161208B0600D5412047
:104FF00000231F2698465A4612ABF6180300189253
:105000000F9A0A3BB146169517941997444666467F
:1050100090469B46149F089D159103E007000D00E4
:10502000202C13D03200002338002900FDF78AFE1F
:105030005B46D2B2D318092A01D8130030334A464E
:1050400001341355A845E9D1BE42E7D9189BA046C3
:105050009B461599169D179C199F0D9B06910493CD
:105060005B460393002305950293434644E7612082
:105070008B0600D541201F2612ABF21803000A3B15
:105080000C934B464646A146A8461C005D4614912B
:10509000BB46170002E00400202E0DD0290020009E
:1050A000FDF712FE0C9BCB18092901D80B003033F9
:1050B0000136BB55AC42EED25F464C46AB46149926
:1050C0004546B046D4E50F9B9D4200D926E7013303
:1050D0000F93F3E5102332009A439446692800D0D9
:1050E000A2E080233200DB001A4090461E4200D12D
:1050F00051E64CE64346002B00D093E673E60C9B4A
:105100001B68DA0F002B70D0D9175B184B409846FC
:105110001F2612ABF618A14614955C464546BB46C1
:10512000E04637000C9206E028000A21FDF7CCFD8E
:105130000500202C08D00A212800FDF7C5FD013408
:1051400030313955092DEFD85F46C446A3464C4649
:10515000149D0C9A634606930D9B059504930A23B0
:10516000029203935B4667E60C9B1B689846002BF4
:1051700003D11033994300282DD161208B0600D52F
:1051800041201F2612ABF61803000A3B4A460C9337
:10519000149143463100A846A1465E461400BB4622
:1051A0001D000F0002E00500202C0DD0310028006A
:1051B000FDF78AFD0C9BCB18092901D80B00303371
:1051C00001343B55B542EED223005F464C4645467E
:1051D000B346994614990D9B069104935B4603933D
:1051E0000023059502934B4626E64346002BB1D19A
:1051F0008EE70C9B1B68D81719184140EDE58023FA
:105200003200DB001A400F921E420FD00230020023
:1052100032400F92304219D00023A0460F939AE5F6
:105220000C9B1B68994618E516009BE402231A00A4
:1052300032400C92334200D08CE5002D00D06DE658
:10524000FFF7F0FB01330F93FFF7D0FB0C93F4E76C
:1052500000B585B00391012102900093034813002B
:105260004A4202A9FFF798FA05B000BDB53D00100B
:1052700010B5094A0300146884B0002C08D001223C
:1052800000910648524203A9A047012004B010BD76
:1052900000F084F90020F9E7901F0020A53D0010E0
:1052A00000BEFDE710B5FFF7FBFFC04670B5FDF788
:1052B000A9FB074D074EB54209D20024013E761BDB
:1052C000B608013608CD01349847B442FAD170BD12
:1052D000648300106C830010030010B508001100F7
:1052E0001B68984710BDC046F8B5437D07000D0008
:1052F0001600002B38D0002A1ADD0B780A2B18D0A4
:105300000020012E09D0012421006B5C01340A2BFE
:105310001AD0B442F8D1864203DD311A3B6828180E
:105320009847AD19013D2B780D3B5A4253413B75CF
:10533000F8BD037D002BE3D102210E483B6898475E
:10534000012EEED00120DEE76B1E5B5C0D2BE0D062
:10535000884203DA091A3B68281898470548022151
:105360003B6898472000D4E703681100280098475D
:10537000DEE7C04628890010F0B5C6460B68070076
:105380000D0000B5802B06D05A1C2A60ED182F7135
:1053900080BCB846F0BD0F4B1C68002C16D00B1D0E
:1053A00098460D4E02E02469002C0FD02368002B94
:1053B000F9D03368002B01D0A342F4D1200041463C
:1053C0002A68FFF791FF2469002CEFD10122002306
:1053D000DBE7C0466C1B0020741B0020F0B546467E
:1053E000D6464F46C0B582B090461C0006000D0060
:1053F000FDF730F800232F4A12184B41002B02DA38
:1054000001222D4B52422D4908008A4602F074FFBA
:1054100081466B1C03D1300002F0F4FE0500002C25
:1054200027D0274F274B1C68002C18D04346002B51
:1054300021D1254B984602E02469002C0FD0236827
:10544000002BF9D043461B68002B01D09C42F3D1BE
:1054500020002A003100B8472469002CEFD14B46C8
:10546000002B23D1280002B0E0BCBA46B146A846C2
:10547000F0BD164FD6E7144B984602E02469002C85
:10548000EDD02368002BF9D043461B68002B01D0D8
:10549000A342F3D12A0031002000B8476B460A220C
:1054A0002000DA71D91D093AB847E7E7504602F003
:1054B000E3FED7E740420F00FFFFFF7F70100020A0
:1054C000E95200106C1B0020741B0020D952001000
:1054D0000A4A1368002B05D10CE01A001B69103230
:1054E000002B07D08342F8D1002902D1186910603F
:1054F000196170470029FCD01060FAE76C1B00208E
:1055000010B500F0EBFA10BDF0B5CE46474680B5B9
:1055100083B06B460600DD1D2870FCF79BFF00235F
:10552000194A12184B41002B02DA0122174B524242
:1055300017490800894602F0DFFE164B80461C68BA
:10554000002C14D0144F02E02469002C0FD02368E3
:10555000002BF9D03B68002B01D09C42F4D12000F5
:1055600001222900FFF7C0FE2469002CEFD1434639
:10557000002B05D1300003B0C0BCB946B046F0BD29
:10558000484602F079FEF5E740420F00FFFFFF7F3B
:10559000701000206C1B0020741B002070B50400EC
:1055A00002F030FE01230100050001222000FFF778
:1055B00015FF084B1C68002C06D06368002B05D033
:1055C00098472469002CF8D1280070BD2469002C6C
:1055D000F3D1F9E76C1B0020F0B5CE46474680B505
:1055E000A3B004000E00FCF735FF0023264A121872
:1055F0004B41002B02DA0122244B5242244802F094
:105600007BFE00232200019380463300214801A93C
:10561000FFF71EFE204F019B81463C68002B19D0EE
:10562000002C2FD01D4E02E02469002C0FD02368DF
:10563000002BF9D03368002B01D0A342F4D1200015
:10564000019A02A9FFF750FE2469002CEFD1002334
:105650003C680193002C06D06368002B0CD098475F
:105660002469002CF8D14346002B07D1484623B0CB
:10567000C0BCB946B046F0BD2469EBE7044802F06F
:10568000FBFDF3E70194EEE740420F00FFFFFF7FD1
:1056900070100020795300106C1B0020741B002038
:1056A0000FB400B583B004A901C90191FFF794FFBD
:1056B00003B008BC04B018477047C0460022014B35
:1056C0001A707047B12100204B790020FF2B0BD1BD
:1056D0008B79002B08D1CB79012B05D1082A03D96E
:1056E000024B8A7809301A707047C046B1210020F9
:1056F0000120704710B5012913D11249537910794F
:1057000009781B0203430020994200D010BD537852
:10571000012B08D0022BF9D1642200210020FDF7D3
:10572000BBF80120F2E7D37891781B021943480AAD
:10573000DB0501D4012040427F238A05D20F1940A6
:10574000FDF732F9B121002000487047F4890010BC
:105750009446012310B501290AD152780023012A69
:1057600006D162461179527912020A43072A01D002
:10577000180010BDA6336146024A01F069FA030021
:10578000F6E7C0464C8900100123037000487047BB
:105790002C8900104B780A781B0213438A7810B5C5
:1057A00012041A43CB781B0613439622D20093426D
:1057B00000D010BD0022012011004042FDF7F4F896
:1057C000024B1860024B19607047C046081B00204E
:1057D0000C1B002010B5024B1878FCF745F810BDE3
:1057E000B3210020154B70B51A68002A22D0EFF3C0
:1057F000108172B610680028FCD0BFF35F8F0020C4
:105800000F4A596010701B68BFF35F8F186081F3F7
:105810001088002400250B4E3078FCF719F800287A
:1058200004D1002400252900200070BD3078FCF749
:105830001BF8F8E7FA240025A400ECE7B41F0020C9
:10584000B4210020B321002070B5050000200E0017
:1058500001F016FB002834D0002001F027FB0028BF
:105860002FD0FCF7F7FD0023174A12184B41002BED
:1058700016DB164C200002F03FFD002821D000204E
:1058800001F0FEFA00280FD101200021404200F073
:1058900015FD03256D42200002F0EEFC280070BDCE
:1058A00001220B4B5242E4E7002001F0FFFA0028EE
:1058B000EAD029003200002001F002FB051EEAD1E7
:1058C000E7E703256D42E9E740420F00842100200D
:1058D000FFFFFF7F10B5FCF7BDFD00230D4A121836
:1058E0004B41002B02DA01220B4B52420B4802F0D3
:1058F00003FD00280CD001200021404200F0DEFC16
:10590000002001F021FB0028F5D1044802F0B4FC8E
:1059100010BDC04640420F00FFFFFF7F84210020E2
:10592000F8B5CE46474680B505000C00FCF792FD61
:105930000023344A12184B41002B02DA0122324B69
:10594000524232490800884602F0D6FC002803D1B2
:10595000C0BCB946B046F8BD002001F091FA00285D
:1059600048D00026002C41DD294B994613E0A919A7
:10597000002001F025FB070001200021404200F03B
:105980009DFC002001F0E0FAFCF764FD204BF619C5
:1059900003C3B4422ADD002001F032FBA71B020042
:1059A000B84200DD3A00002AE1D101200021404246
:1059B00000F084FC002001F0C7FA002001F060FA3A
:1059C000002813D0002001F01BFB0028E1D1FCF7D8
:1059D00041FD4B460F000CCB002184460D481218A8
:1059E0004B419F4202D8D4D19445D2D9404602F0CF
:1059F00043FCADE700200021054B03C3404602F005
:105A00003BFCA5E740420F00FFFFFF7F8421002001
:105A1000C012002020A1070030B5002185B0284821
:105A200002F052FC00281CD1264B1A68002A16D01E
:105A3000EFF3108172B610680028FCD0BFF35F8FBF
:105A400001242148596002781B68D2B20470BFF368
:105A50005F8F0020186081F31088002A17D005B0EE
:105A600030BD01200021404200F028FC002001F060
:105A70001DFA0500124802F0FFFB002DEFD0134B7A
:105A80001B68002BEBD0124A10689847E7E7FCF739
:105A9000D5FA0400FCF7DEFCFA220023920012186B
:105AA0004B41002B02DA01220A4B524201210291A2
:105AB00000210191084920000091FCF7C3FACEE7CC
:105AC00084210020B41F0020B4210020081B0020E6
:105AD0000C1B0020FFFFFF7FE5570010D02310B5FF
